{
  "contractName": "Box",
  "abi": [
    {
      "anonymous": false,
      "inputs": [
        {
          "indexed": false,
          "internalType": "uint256",
          "name": "newValue",
          "type": "uint256"
        }
      ],
      "name": "ValueChanged",
      "type": "event"
    },
    {
      "inputs": [
        {
          "internalType": "uint256",
          "name": "newValue",
          "type": "uint256"
        }
      ],
      "name": "store",
      "outputs": [],
      "stateMutability": "nonpayable",
      "type": "function"
    },
    {
      "inputs": [],
      "name": "retrieve",
      "outputs": [
        {
          "internalType": "uint256",
          "name": "",
          "type": "uint256"
        }
      ],
      "stateMutability": "view",
      "type": "function"
    }
  ],
  "bytecode": "0x608060405234801561001057600080fd5b50610187806100206000396000f3fe608060405234801561001057600080fd5b50600436106100365760003560e01c80632e64cec11461003b5780636057361d14610059575b600080fd5b610043610075565b60405161005091906100d8565b60405180910390f35b610073600480360381019061006e9190610124565b61007e565b005b60008054905090565b806000819055507f93fe6d397c74fdf1402a8b72e47b68512f0510d7b98a4bc4cbdf6ac7108b3c59816040516100b491906100d8565b60405180910390a150565b6000819050919050565b6100d2816100bf565b82525050565b60006020820190506100ed60008301846100c9565b92915050565b600080fd5b610101816100bf565b811461010c57600080fd5b50565b60008135905061011e816100f8565b92915050565b60006020828403121561013a576101396100f3565b5b60006101488482850161010f565b9150509291505056fea26469706673582212201faff16b1afdfb87aaf31417d7041648d3db083ece07e8385fddda453bf7513864736f6c634300080e0033",
  "immutableReferences": {},
  "source": "// contracts/Box.sol\r\n// SPDX-License-Identifier: MIT\r\npragma solidity ^0.8.0;\r\n \r\ncontract Box {\r\n    uint256 private value;\r\n \r\n    // Emitted when the stored value changes\r\n    event ValueChanged(uint256 newValue);\r\n \r\n    // Stores a new value in the contract\r\n    function store(uint256 newValue) public {\r\n        value = newValue;\r\n        emit ValueChanged(newValue);\r\n    }\r\n \r\n    // Reads the last stored value\r\n    function retrieve() public view returns (uint256) {\r\n        return value;\r\n    }\r\n}",
  "sourcePath": "R:\\d\\SimpleSmartContractUpgradeProxy\\contracts\\Box.sol",
  "compiler": {
    "name": "solc",
    "version": "0.8.14+commit.80d49f37.Emscripten.clang"
  },
  "schemaVersion": "3.4.7",
  "updatedAt": "2022-06-25T04:40:15.106Z",
  "devdoc": {
    "kind": "dev",
    "methods": {},
    "version": 1
  },
  "userdoc": {
    "kind": "user",
    "methods": {},
    "version": 1
  }
}