{
  "contractName": "BoxV2",
  "abi": [
    {
      "anonymous": false,
      "inputs": [
        {
          "indexed": false,
          "internalType": "uint256",
          "name": "newValue",
          "type": "uint256"
        }
      ],
      "name": "ValueChanged",
      "type": "event"
    },
    {
      "inputs": [
        {
          "internalType": "uint256",
          "name": "newValue",
          "type": "uint256"
        }
      ],
      "name": "store",
      "outputs": [],
      "stateMutability": "nonpayable",
      "type": "function"
    },
    {
      "inputs": [],
      "name": "retrieve",
      "outputs": [
        {
          "internalType": "uint256",
          "name": "",
          "type": "uint256"
        }
      ],
      "stateMutability": "view",
      "type": "function"
    },
    {
      "inputs": [],
      "name": "increment",
      "outputs": [],
      "stateMutability": "nonpayable",
      "type": "function"
    }
  ],
  "bytecode": "0x608060405234801561001057600080fd5b50610271806100206000396000f3fe608060405234801561001057600080fd5b50600436106100415760003560e01c80632e64cec1146100465780636057361d14610064578063d09de08a14610080575b600080fd5b61004e61008a565b60405161005b919061013d565b60405180910390f35b61007e60048036038101906100799190610189565b610093565b005b6100886100d4565b005b60008054905090565b806000819055507f93fe6d397c74fdf1402a8b72e47b68512f0510d7b98a4bc4cbdf6ac7108b3c59816040516100c9919061013d565b60405180910390a150565b60016000546100e391906101e5565b6000819055507f93fe6d397c74fdf1402a8b72e47b68512f0510d7b98a4bc4cbdf6ac7108b3c5960005460405161011a919061013d565b60405180910390a1565b6000819050919050565b61013781610124565b82525050565b6000602082019050610152600083018461012e565b92915050565b600080fd5b61016681610124565b811461017157600080fd5b50565b6000813590506101838161015d565b92915050565b60006020828403121561019f5761019e610158565b5b60006101ad84828501610174565b91505092915050565b7f4e487b7100000000000000000000000000000000000000000000000000000000600052601160045260246000fd5b60006101f082610124565b91506101fb83610124565b9250827fffffffffffffffffffffffffffffffffffffffffffffffffffffffffffffffff038211156102305761022f6101b6565b5b82820190509291505056fea264697066735822122001a777b9352213f926486bb82264c71d68f7c4db012a4b3052e579bd6b405e0864736f6c634300080e0033",
  "immutableReferences": {},
  "source": "// contracts/BoxV2.sol\r\n// SPDX-License-Identifier: MIT\r\npragma solidity ^0.8.0;\r\n \r\ncontract BoxV2 {\r\n    uint256 private value;\r\n \r\n    // Emitted when the stored value changes\r\n    event ValueChanged(uint256 newValue);\r\n \r\n    // Stores a new value in the contract\r\n    function store(uint256 newValue) public {\r\n        value = newValue;\r\n        emit ValueChanged(newValue);\r\n    }\r\n    \r\n    // Reads the last stored value\r\n    function retrieve() public view returns (uint256) {\r\n        return value;\r\n    }\r\n    \r\n    // Increments the stored value by 1\r\n    function increment() public {\r\n        value = value + 1;\r\n        emit ValueChanged(value);\r\n    }\r\n}",
  "sourcePath": "R:\\d\\SimpleSmartContractUpgradeProxy\\contracts\\BoxV2.sol",
  "compiler": {
    "name": "solc",
    "version": "0.8.14+commit.80d49f37.Emscripten.clang"
  },
  "schemaVersion": "3.4.7",
  "updatedAt": "2022-06-25T04:40:15.109Z",
  "devdoc": {
    "kind": "dev",
    "methods": {},
    "version": 1
  },
  "userdoc": {
    "kind": "user",
    "methods": {},
    "version": 1
  }
}